{
  "contractName": "Charitable",
  "abi": [
    {
      "inputs": [
        {
          "internalType": "address payable[]",
          "name": "addresses_",
          "type": "address[]"
        }
      ],
      "stateMutability": "nonpayable",
      "type": "constructor"
    },
    {
      "anonymous": false,
      "inputs": [
        {
          "indexed": true,
          "internalType": "address",
          "name": "_donor",
          "type": "address"
        },
        {
          "indexed": false,
          "internalType": "uint256",
          "name": "_value",
          "type": "uint256"
        }
      ],
      "name": "Donation",
      "type": "event"
    },
    {
      "inputs": [
        {
          "internalType": "address payable",
          "name": "destinationAddress",
          "type": "address"
        },
        {
          "internalType": "uint256",
          "name": "charityIndex",
          "type": "uint256"
        },
        {
          "internalType": "uint256",
          "name": "donationAmount",
          "type": "uint256"
        }
      ],
      "name": "deposit",
      "outputs": [],
      "stateMutability": "payable",
      "type": "function"
    },
    {
      "inputs": [
        {
          "internalType": "address payable",
          "name": "destinationAddress",
          "type": "address"
        },
        {
          "internalType": "uint256",
          "name": "charityIndex",
          "type": "uint256"
        }
      ],
      "name": "deposit",
      "outputs": [],
      "stateMutability": "payable",
      "type": "function"
    },
    {
      "inputs": [],
      "name": "getAddresses",
      "outputs": [
        {
          "internalType": "address payable[]",
          "name": "",
          "type": "address[]"
        }
      ],
      "stateMutability": "view",
      "type": "function"
    },
    {
      "inputs": [],
      "name": "getTotalDonationsAmount",
      "outputs": [
        {
          "internalType": "uint256",
          "name": "",
          "type": "uint256"
        }
      ],
      "stateMutability": "view",
      "type": "function"
    },
    {
      "inputs": [],
      "name": "getHighestDonation",
      "outputs": [
        {
          "internalType": "uint256",
          "name": "",
          "type": "uint256"
        },
        {
          "internalType": "address payable",
          "name": "",
          "type": "address"
        }
      ],
      "stateMutability": "view",
      "type": "function"
    },
    {
      "inputs": [],
      "name": "destroy",
      "outputs": [],
      "stateMutability": "nonpayable",
      "type": "function"
    }
  ],
  "bytecode": "0x608060405234801561001057600080fd5b506040516109373803806109378339818101604052602081101561003357600080fd5b810190808051604051939291908464010000000082111561005357600080fd5b90830190602082018581111561006857600080fd5b825186602082028301116401000000008211171561008557600080fd5b82525081516020918201928201910280838360005b838110156100b257818101518382015260200161009a565b50505050919091016040525050600080546001600160a01b03191633179055505080516100e69060019060208401906100f7565b505060006002819055600355610183565b82805482825590600052602060002090810192821561014c579160200282015b8281111561014c57825182546001600160a01b0319166001600160a01b03909116178255602090920191600190910190610117565b5061015892915061015c565b5090565b61018091905b808211156101585780546001600160a01b0319168155600101610162565b90565b6107a5806101926000396000f3fe6080604052600436106100555760003560e01c80630efe6a8b1461005a578063141b88091461008e57806347e7ef24146100b557806383197ef0146100e1578063a39fac12146100f6578063efb349af1461015b575b600080fd5b61008c6004803603606081101561007057600080fd5b506001600160a01b038135169060208101359060400135610191565b005b34801561009a57600080fd5b506100a36103b6565b60408051918252519081900360200190f35b61008c600480360360408110156100cb57600080fd5b506001600160a01b0381351690602001356103bc565b3480156100ed57600080fd5b5061008c610596565b34801561010257600080fd5b5061010b6105e1565b60408051602080825283518183015283519192839290830191858101910280838360005b8381101561014757818101518382015260200161012f565b505050509050019250505060405180910390f35b34801561016757600080fd5b50610170610643565b604080519283526001600160a01b0390911660208301528051918290030190f35b82336001600160a01b03821614156101da5760405162461bcd60e51b81526004018080602001828103825260288152602001806106946028913960400191505060405180910390fd5b600034116102195760405162461bcd60e51b81526004018080602001828103825260298152602001806107046029913960400191505060405180910390fd5b60015483906000190181111561026f576040805162461bcd60e51b815260206004820152601660248201527524b73b30b634b21031b430b934ba3c9034b73232bc1760511b604482015290519081900360640190fd5b826064340481101580156102865750600234048111155b6102c15760405162461bcd60e51b81526004018080602001828103825260488152602001806106bc6048913960600191505060405180910390fd5b60008434039050600186815481106102d557fe5b60009182526020822001546040516001600160a01b039091169187156108fc02918891818181858888f19350505050158015610315573d6000803e3d6000fd5b506040516001600160a01b0388169082156108fc029083906000818181858888f1935050505015801561034c573d6000803e3d6000fd5b5060408051868152905133917f5d8bc849764969eb1bcc6d0a2f55999d0167c1ccec240a4f39cf664ca9c4148e919081900360200190a260028054860190556003548511156103ad576003859055600480546001600160a01b031916331790555b50505050505050565b60025490565b81336001600160a01b03821614156104055760405162461bcd60e51b81526004018080602001828103825260288152602001806106946028913960400191505060405180910390fd5b600034116104445760405162461bcd60e51b81526004018080602001828103825260298152602001806107046029913960400191505060405180910390fd5b60015482906000190181111561049a576040805162461bcd60e51b815260206004820152601660248201527524b73b30b634b21031b430b934ba3c9034b73232bc1760511b604482015290519081900360640190fd5b6000600a3404905060008134039050600185815481106104b657fe5b60009182526020822001546040516001600160a01b039091169184156108fc02918591818181858888f193505050501580156104f6573d6000803e3d6000fd5b506040516001600160a01b0387169082156108fc029083906000818181858888f1935050505015801561052d573d6000803e3d6000fd5b5060408051838152905133917f5d8bc849764969eb1bcc6d0a2f55999d0167c1ccec240a4f39cf664ca9c4148e919081900360200190a2600280548301905560035482111561058e576003829055600480546001600160a01b031916331790555b505050505050565b6000546001600160a01b031633146105df5760405162461bcd60e51b815260040180806020018281038252604381526020018061072d6043913960600191505060405180910390fd5b565b6060600180548060200260200160405190810160405280929190818152602001828054801561063957602002820191906000526020600020905b81546001600160a01b0316815260019091019060200180831161061b575b5050505050905090565b6000805481906001600160a01b0316331461068f5760405162461bcd60e51b815260040180806020018281038252604381526020018061072d6043913960600191505060405180910390fd5b909156fe53656e64657220616e6420726563697069656e742063616e6e6f74206265207468652073616d652e446f6e6174696f6e20616d6f756e742068617320746f2062652066726f6d20312520746f20353025206f662074686520746f74616c207472616e7366657272656420616d6f756e745472616e7366657220616d6f756e742068617320746f2062652067726561746572207468616e20302e4d6574686f6420617661696c61626c65206f6e6c7920746f2074686520746f2074686520757365722074686174206465706c6f7965642074686520636f6e7472616374a26469706673582212209c627cd983f5d9af7c391f1d3cfcbe831134c82200d31505ba501afaffeef46664736f6c63430006000033",
  "source": "pragma solidity >=0.4.22 <0.9.0;\r\n\r\n/// @title A contract that is able to facilitate donations to different charities\r\n/// whenever a user wants to make a transfer of funds to another user.\r\ncontract Charitable {\r\n    address owner;\r\n    address payable[] charityAddresses;\r\n    uint256 totalDonationsAmount;\r\n    uint256 highestDonation;\r\n    address highestDonor;\r\n\r\n    /// @param addresses_ The list of charity addresses to store in order to send donations to.\r\n    constructor(address payable[] memory addresses_) public {\r\n        owner = msg.sender;\r\n        charityAddresses = addresses_;\r\n        totalDonationsAmount = 0;\r\n        highestDonation = 0;\r\n    }\r\n\r\n    /// Restricts the access only to the user who deployed the contract.\r\n    modifier restrictToOwner() {\r\n        require(\r\n            msg.sender == owner,\r\n            \"Method available only to the to the user that deployed the contract\"\r\n        );\r\n        _;\r\n    }\r\n\r\n    /// Validates that the sender originated the transfer is different than the target destination.\r\n    modifier validateDestination(address payable destinationAddress) {\r\n        require(\r\n            msg.sender != destinationAddress,\r\n            \"Sender and recipient cannot be the same.\"\r\n        );\r\n        _;\r\n    }\r\n\r\n    //// Validates that the charity index number provided is a valid one.\r\n    ///\r\n    /// @param charityIndex The target charity index to validate. Indexes start from 0 and increment by 1.\r\n    modifier validateCharity(uint256 charityIndex) {\r\n        require(\r\n            charityIndex <= charityAddresses.length - 1,\r\n            \"Invalid charity index.\"\r\n        );\r\n        _;\r\n    }\r\n\r\n    /// Validates that the amount to transfer is not zero.\r\n    modifier validateTransferAmount() {\r\n        require(msg.value > 0, \"Transfer amount has to be greater than 0.\");\r\n        _;\r\n    }\r\n\r\n    /// Validates that the donated amount is within acceptable limits.\r\n    ///\r\n    /// @param donationAmount The target donation amount.\r\n    /// @dev donated amount >= 1% of the total transferred amount and <= 50% of the total transferred amount.\r\n    modifier validateDonationAmount(uint256 donationAmount) {\r\n        require(\r\n            donationAmount >= msg.value / 100 &&\r\n                donationAmount <= msg.value / 2,\r\n            \"Donation amount has to be from 1% to 50% of the total transferred amount\"\r\n        );\r\n        _;\r\n    }\r\n\r\n    /// Transmits the address of the donor and the amount donated.\r\n    event Donation(address indexed _donor, uint256 _value);\r\n\r\n    /// Redirects 10% of the total transferred funds to the target charity and transfers the rest to the target address.\r\n    /// Whenever a transfer of funds is complete, it emits the event `Donation`.\r\n    ///\r\n    /// @param destinationAddress The target address to send fund to.\r\n    /// @param charityIndex The target index of the charity to send the 10% of the funds.\r\n    function deposit(address payable destinationAddress, uint256 charityIndex)\r\n        public\r\n        payable\r\n        validateDestination(destinationAddress)\r\n        validateTransferAmount\r\n        validateCharity(charityIndex)\r\n    {\r\n        uint256 donationAmount = msg.value / 10;\r\n        uint256 actualDeposit = msg.value - donationAmount;\r\n\r\n        charityAddresses[charityIndex].transfer(donationAmount);\r\n        destinationAddress.transfer(actualDeposit);\r\n\r\n        emit Donation(msg.sender, donationAmount);\r\n\r\n        totalDonationsAmount += donationAmount;\r\n\r\n        if (donationAmount > highestDonation) {\r\n            highestDonation = donationAmount;\r\n            highestDonor = msg.sender;\r\n        }\r\n    }\r\n\r\n    /// Redirects the specified amount to the target charity and transfers the rest to the target address.\r\n    /// Whenever a transfer of funds is complete, it emits the event `Donation`.\r\n    ///\r\n    /// @param destinationAddress The target address to send fund to.\r\n    /// @param charityIndex The target index of the charity to send the specified amount.\r\n    /// @param donationAmount The amount to send to the target charity.\r\n    function deposit(\r\n        address payable destinationAddress,\r\n        uint256 charityIndex,\r\n        uint256 donationAmount\r\n    )\r\n        public\r\n        payable\r\n        validateDestination(destinationAddress)\r\n        validateTransferAmount\r\n        validateCharity(charityIndex)\r\n        validateDonationAmount(donationAmount)\r\n    {\r\n        uint256 actualDeposit = msg.value - donationAmount;\r\n\r\n        charityAddresses[charityIndex].transfer(donationAmount);\r\n        destinationAddress.transfer(actualDeposit);\r\n\r\n        emit Donation(msg.sender, donationAmount);\r\n\r\n        totalDonationsAmount += donationAmount;\r\n\r\n        if (donationAmount > highestDonation) {\r\n            highestDonation = donationAmount;\r\n            highestDonor = msg.sender;\r\n        }\r\n    }\r\n\r\n    /// Returns all the available charity addresses.\r\n    /// @return charityAddresses\r\n    function getAddresses() public view returns (address payable[] memory) {\r\n        return charityAddresses;\r\n    }\r\n\r\n    /// Returns the total amount raised by all donations (in wei) towards any charity.\r\n    /// @return totalDonationsAmount\r\n    function getTotalDonationsAmount() public view returns (uint256) {\r\n        return totalDonationsAmount;\r\n    }\r\n\r\n    /// Returns the address that made the highest donation, along with the amount donated.\r\n    /// @return (highestDonation, highestDonor)\r\n    function getHighestDonation()\r\n        public\r\n        view\r\n        restrictToOwner\r\n        returns (uint256, address payable)\r\n    {\r\n        // return (highestDonation, highestDonor);\r\n    }\r\n\r\n    // Destroys the contract and renders it unusable.\r\n    function destroy() public restrictToOwner {\r\n        // selfdestruct(owner);\r\n    }\r\n}\r\n",
  "sourcePath": "E:\\VKU-3-Term2\\CD\\blockchain_endterm\\eth-todo-list\\contracts\\Charitable.sol",
  "compiler": {
    "name": "solc",
    "version": "0.6.0+commit.26b70077.Emscripten.clang"
  },
  "schemaVersion": "3.4.7",
  "updatedAt": "2022-05-10T03:43:24.818Z",
  "devdoc": {
    "methods": {
      "constructor": {
        "params": {
          "addresses_": "The list of charity addresses to store in order to send donations to."
        }
      },
      "deposit(address,uint256)": {
        "params": {
          "charityIndex": "The target index of the charity to send the 10% of the funds.",
          "destinationAddress": "The target address to send fund to."
        }
      },
      "deposit(address,uint256,uint256)": {
        "params": {
          "charityIndex": "The target index of the charity to send the specified amount.",
          "destinationAddress": "The target address to send fund to.",
          "donationAmount": "The amount to send to the target charity."
        }
      }
    },
    "title": "A contract that is able to facilitate donations to different charities whenever a user wants to make a transfer of funds to another user."
  },
  "userdoc": {
    "methods": {
      "deposit(address,uint256)": {
        "notice": "Redirects 10% of the total transferred funds to the target charity and transfers the rest to the target address. Whenever a transfer of funds is complete, it emits the event `Donation`. \r"
      },
      "deposit(address,uint256,uint256)": {
        "notice": "Redirects the specified amount to the target charity and transfers the rest to the target address. Whenever a transfer of funds is complete, it emits the event `Donation`. \r"
      },
      "getAddresses()": {
        "notice": "Returns all the available charity addresses."
      },
      "getHighestDonation()": {
        "notice": "Returns the address that made the highest donation, along with the amount donated."
      },
      "getTotalDonationsAmount()": {
        "notice": "Returns the total amount raised by all donations (in wei) towards any charity."
      }
    }
  }
}