{
  "contractName": "CharityList",
  "abi": [
    {
      "inputs": [],
      "stateMutability": "nonpayable",
      "type": "constructor"
    },
    {
      "inputs": [
        {
          "internalType": "uint256",
          "name": "",
          "type": "uint256"
        }
      ],
      "name": "charities",
      "outputs": [
        {
          "internalType": "uint256",
          "name": "id",
          "type": "uint256"
        },
        {
          "internalType": "string",
          "name": "message",
          "type": "string"
        },
        {
          "internalType": "address",
          "name": "donor",
          "type": "address"
        },
        {
          "internalType": "uint256",
          "name": "value",
          "type": "uint256"
        }
      ],
      "stateMutability": "view",
      "type": "function",
      "constant": true
    },
    {
      "inputs": [],
      "name": "charityCount",
      "outputs": [
        {
          "internalType": "uint256",
          "name": "",
          "type": "uint256"
        }
      ],
      "stateMutability": "view",
      "type": "function",
      "constant": true
    },
    {
      "inputs": [
        {
          "internalType": "string",
          "name": "_message",
          "type": "string"
        }
      ],
      "name": "createCharity",
      "outputs": [],
      "stateMutability": "payable",
      "type": "function",
      "payable": true
    }
  ],
  "bytecode": "0x60806040526000805534801561001457600080fd5b50600180546001600160a01b0319163317905561041f806100366000396000f3fe6080604052600436106100345760003560e01c806364be55481461003957806391329493146100e1578063fb709d2e14610108575b600080fd5b6100df6004803603602081101561004f57600080fd5b81019060208101813564010000000081111561006a57600080fd5b82018360208201111561007c57600080fd5b8035906020019184600183028401116401000000008311171561009e57600080fd5b91908080601f0160208091040260200160405190810160405280939291908181526020018383808284376000920191909152509295506101d1945050505050565b005b3480156100ed57600080fd5b506100f661028d565b60408051918252519081900360200190f35b34801561011457600080fd5b506101326004803603602081101561012b57600080fd5b5035610293565b6040518085815260200180602001846001600160a01b03166001600160a01b03168152602001838152602001828103825285818151815260200191508051906020019080838360005b8381101561019357818101518382015260200161017b565b50505050905090810190601f1680156101c05780820380516001836020036101000a031916815260200191505b509550505050505060405180910390f35b60008054600190810180835560408051608081018252828152602080820187815233838501523460608401529386526002815291909420845181559151805192936102249390850192919091019061034e565b506040828101516002830180546001600160a01b039283166001600160a01b031990911617905560609093015160039092019190915560015490519116903480156108fc02916000818181858888f19350505050158015610289573d6000803e3d6000fd5b5050565b60005481565b60026020818152600092835260409283902080546001808301805487519281161561010002600019011695909504601f810185900485028201850190965285815290949193909290919083018282801561032e5780601f106103035761010080835404028352916020019161032e565b820191906000526020600020905b81548152906001019060200180831161031157829003601f168201915b50505050600283015460039093015491926001600160a01b031691905084565b828054600181600116156101000203166002900490600052602060002090601f016020900481019282601f1061038f57805160ff19168380011785556103bc565b828001600101855582156103bc579182015b828111156103bc5782518255916020019190600101906103a1565b506103c89291506103cc565b5090565b6103e691905b808211156103c857600081556001016103d2565b9056fea2646970667358221220887b4523035f384ef1487f85974d31dc053e7b32bfea207add0643ac4ff753bf64736f6c63430006000033",
  "source": "pragma solidity >=0.6.0 <0.9.0;\r\n\r\ncontract CharityList {\r\n    uint256 public charityCount = 0;\r\n    address _owner;\r\n    struct Charity {\r\n        uint256 id;\r\n        string message;\r\n        address donor;\r\n        uint256 value;\r\n    }\r\n    mapping(uint256 => Charity) public charities;\r\n\r\n    // event TaskCreated(uint256 id, string content, bool completed);\r\n\r\n    // event TaskCompleted(uint256 id, bool completed);\r\n\r\n    constructor() public {\r\n        _owner = msg.sender;\r\n    }\r\n\r\n    function createCharity(string memory _message) public payable {\r\n        charityCount++;\r\n        charities[charityCount] = Charity(\r\n            charityCount,\r\n            _message,\r\n            msg.sender,\r\n            msg.value\r\n        );\r\n        payable(_owner).transfer(msg.value);\r\n        // emit TaskCreated(taskCount, _message, false);\r\n    }\r\n\r\n    modifier validateTransferAmount() {\r\n        require(msg.value > 0, \"Transfer amount has to be greater than 0.\");\r\n        _;\r\n    }\r\n    modifier validateCharity(uint256 charityIndex) {\r\n        require(\r\n            // charityIndex <= charityAddresses.length - 1,\r\n            false,\r\n            \"Invalid charity index.\"\r\n        );\r\n        _;\r\n    }\r\n    modifier validateTransferdAmount() {\r\n        require(msg.value > 0, \"Transfer amount has to be greater than 0.\");\r\n        _;\r\n    }\r\n\r\n    // function toggleCompleted(uint256 _id) public {\r\n    //     Task memory _task = tasks[_id];\r\n    //     _task.completed = true;\r\n    //     tasks[_id] = _task;\r\n    //     emit TaskCompleted(_id, _task.completed);\r\n    // }\r\n}\r\n",
  "sourcePath": "E:\\VKU-3-Term2\\CD\\blockchain_endterm\\eth-todo-list\\contracts\\CharityList.sol",
  "compiler": {
    "name": "solc",
    "version": "0.6.0+commit.26b70077.Emscripten.clang"
  },
  "schemaVersion": "3.4.7",
  "updatedAt": "2022-05-12T00:04:00.879Z",
  "networkType": "ethereum",
  "devdoc": {
    "methods": {}
  },
  "userdoc": {
    "methods": {}
  }
}